:100000000C94B2000C94DA000C94DA000C94DA0030
:100010000C94DA000C94DA000C94DA000C94C80604
:100020000C94DA000C94DA000C94DA000C94DA00E8
:100030000C94DA000C94DA000C94DA000C94DA00D8
:100040000C947E060C94DA000C9470070C944A070A
:100050000C94DA000C94DA000C94DA000C94DA00B8
:100060000C94DA000C94DA00BA05C3057906D605BB
:10007000EB05F10503060D0679061F063106370666
:100080004B066C0602FFFFFFFF01FFFFFFFFFF02B1
:10009000FF00FF00FFFFFFFF03FFFFFFFF0402FF62
:1000A000FF01FFFFFFFFFF0000FFFFFFFFFFFFFF5C
:1000B000FF01FFFF01FFFFFF02FFFFFFFFFFFFFF49
:1000C00003FF0403FFFFFFFFFFFFFFFF05FF06FF26
:1000D00004FFFFFFFFFFFFFF07FF08FFFF05FFFF14
:1000E000FFFF05FF09FF0AFFFFFF06FFFFFFFFFFFE
:1000F0000BFFFFFFFFFFFF07FFFFFFFF0CFF0DFFE1
:10010000FFFFFFFF00FFFFFF0000000024002700AB
:100110002A0000000000250028002B00000000003D
:100120002300260029000404040404040404020239
:100130000202020203030303030301020408102066
:100140004080010204081020010204081020000071
:100150000008000201000003040700000000000086
:100160000000A20711241FBECFEFD8E0DEBFCDBF35
:1001700024E0A4EDB2E001C01D92A331B207E1F783
:1001800012E0A0E0B1E0E4E9F4E102C005900D92D4
:10019000A43DB107D9F710E0C2EBD0E004C021972D
:1001A000FE010E943D0AC13BD107C9F70E94110818
:1001B0000C94480A0C940000E091F002F091F102D6
:1001C0000190F081E02D682F80EF92E00994CF93A9
:1001D000DF93DC018C918770813019F0833069F0F6
:1001E0001DC01196ED91FC9112973097B9F01396BE
:1001F0008D919C911497099511C011968D919C91A8
:100200001297009759F0EC01E881F98113966D91EE
:100210007C9114970280F381E02D099581E0DF91B4
:10022000CF910895833081F028F4813099F08230A5
:10023000A1F008958730A9F08830B9F08430D1F466
:10024000809180008F7D03C0809180008F778093A4
:100250008000089584B58F7702C084B58F7D84BDFA
:1002600008958091B0008F7703C08091B0008F7D9A
:100270008093B0000895CF93DF93282F30E0F901E9
:10028000E25BFE4F8491F901E65CFE4FD491F901E7
:10029000EA5DFE4FC491CC2391F081110E941201BE
:1002A000EC2FF0E0EE0FFF1FE45EFE4FA591B4913E
:1002B000EC91ED2381E090E021F480E002C080E049
:1002C00090E0DF91CF9108951F93CF93DF93282F74
:1002D00030E0F901E25BFE4F8491F901E65CFE4FEC
:1002E000D491F901EA5DFE4FC491CC23C9F0162FD9
:1002F00081110E941201EC2FF0E0EE0FFF1FEE5E65
:10030000FE4FA591B4918FB7F894111105C09C913F
:10031000ED2FE095E92302C0EC91ED2BEC938FBF1C
:10032000DF91CF911F910895CF93DF9390E0FC016F
:10033000E65CFE4F2491FC01EA5DFE4F8491882328
:1003400061F190E0880F991FFC01E85FFE4FC591B5
:10035000D491FC01EE5EFE4FA591B491611109C0EC
:100360009FB7F8948881209582238883EC912E236F
:100370000BC0623061F49FB7F8943881822F80956A
:1003800083238883EC912E2B2C939FBF06C08FB7BD
:10039000F894E8812E2B28838FBFDF91CF910895A9
:1003A0002FB7F8946091EC027091ED028091EE020B
:1003B0009091EF022FBF0895CF92DF92EF92FF92BC
:1003C0000F931F93CF93DF936C017A018B01C0E0F1
:1003D000D0E0CE15DF0589F0D8016D918D01D601F1
:1003E000ED91FC910190F081E02DC6010995892BDA
:1003F00011F47E0102C02196ECCFC701DF91CF91AD
:100400001F910F91FF90EF90DF90CF900895FC0126
:10041000918D828D981761F0828DDF01A80FB11D3B
:100420005D968C91928D9F5F9F73928F90E008955F
:100430008FEF9FEF0895FC01918D828D981731F019
:10044000828DE80FF11D858D90E008958FEF9FEF6D
:100450000895FC01918D228D892F90E0805C9F4F43
:10046000821B91098F739927089580EF92E00E9473
:10047000290221E0892B09F420E0822F0895FC0154
:10048000848DDF01A80FB11DA35ABF4F2C91848D1D
:1004900090E001968F739927848FA689B7892C9352
:1004A000A089B1898C9180648C93938D848D9813ED
:1004B00006C00288F389E02D80818F7D80830895B6
:1004C000EF92FF920F931F93CF93DF93EC0181E0A4
:1004D000888F9B8D8C8D981305C0E889F989808160
:1004E00085FD24C0F62E0B8D10E00F5F1F4F0F739C
:1004F0001127E02E8C8DE8120CC00FB607FCFACF46
:10050000E889F989808185FFF5CFCE010E943F02FD
:10051000F1CF8B8DFE01E80FF11DE35AFF4FF08202
:100520000B8FEA89FB898081806207C0EE89FF8991
:100530006083E889F98980818064808381E090E02C
:10054000DF91CF911F910F91FF90EF900895CF937E
:10055000DF93EC01888D8823C9F0EA89FB898081CB
:1005600085FD05C0A889B9898C9186FD0FC00FB69D
:1005700007FCF5CF808185FFF2CFA889B9898C91DE
:1005800085FFEDCFCE010E943F02E7CFDF91CF91F3
:10059000089580E090E0892B29F00E9435028111B6
:1005A0000C94000008950F931F93CF93DF93FC01E9
:1005B00000811181228133810F3F1F4F2F4F3F4F09
:1005C000E1F08B01EC010E94D001F801028113815E
:1005D00024813581AB01BC01401B510B620B730BB5
:1005E00081E090E0088119812A813B814017510701
:1005F0006207730720F480E002C080E090E0DF91A2
:10060000CF911F910F9108956F3F8FEF7807B1F051
:1006100061157105B1F0FA0180E090E09F01241BA3
:10062000350BA191A111FACF019686179707B1F763
:100630002F5F3F4FCA01820F931F08958DE291E013
:100640000895CA0108952F923F924F925F926F9240
:100650007F928F929F92AF92BF92CF92DF92EF9252
:10066000FF920F931F93CF93DF93EC010E94D00171
:100670008E81982F937009F017C14E895F89688D1C
:10068000798D4F5F5F4F6F4F7F4F4E8B5F8B688FC2
:10069000798F82608E838C858F3F09F4B0C0E881AA
:1006A000F9810680F781E02D6DEF7FEFCE0109958E
:1006B0006A887B886114710409F456C02E883F88CB
:1006C000488C598C0E94D0010A811B812C813D816C
:1006D0005B016C01A01AB10AC20AD30A8F84988800
:1006E0006E856F3F31F0062E000C770B6F5F7F4FEA
:1006F00002C06FEF7FEFA401CE010E9404037C01D2
:100700008C858F3F49F0698970E0680F711D87FD06
:100710007A956250710902C06FEF7FEFA401CE019C
:100720000E9404038C018D858F3F49F0698970E038
:10073000680F711D87FD7A956250710902C06FEFD5
:100740007FEFA401CE010E9404035F924F923F927B
:100750002F929C01A401BE018C899D89F30109950A
:100760000F900F900F900F906D8567FD14C0298931
:100770006203F001112432966A857B85E60FF71F2C
:100780006491E881F981062E000C770B0680F781D1
:10079000E02DCE0109958C858D878FEF8C870E9487
:1007A000D0016A837B838C839D836D852989620355
:1007B000F00111246A857B85E60FF71F6491E881BB
:1007C000F981062E000C770B0680F781E02DCE0113
:1007D00009953D8529893203F001112431968A85D6
:1007E0009B85E80FF91FE4918E81EE3F11F4816043
:1007F00001C08E7F8E831E8A1F8A188E198E6D858A
:1008000029896203F001112431966A857B85E60F00
:10081000F71F64916F3F51F0E881F981062E000CBB
:10082000770B0680F781E02DCE01099503E0602F5C
:10083000002E000C770B2989822F90E0681779072A
:1008400084F53D853203F0011124E60FF71F2A8558
:100850003B85E20FF31F14911F3FC9F00197681702
:100860007907B9F07B01F3E0EF1AF108E881F9812B
:100870000480F581E02DB701CE010995892B49F45B
:100880008F81082E000C990B8E159F0511F00F5FBC
:10089000CECF1C878E818E7F8E8303500E878FEF85
:1008A0008F838E818D7F8E830E94D001CE01DF9158
:1008B000CF911F910F91FF90EF90DF90CF90BF905D
:1008C000AF909F908F907F906F905F904F903F90F0
:1008D0002F900895FC01738762874C5F418B96814E
:1008E000892F8E7F868392FD0CC02091E502309186
:1008F000E60231872087F093E602E093E502846008
:1009000086838FEF858714868783CF010895EF92C2
:10091000FF920F931F93CF93DF93EC018B0188E03D
:10092000E82EF12C8E818E7F8E83CE010E942303D0
:100930003D8529893203F00111243396E00FF11F20
:100940008A859B85E80FF91FE4910E2E000CFF0BA2
:1009500081E0E81AF10839F0EF3F8FEFF80711F363
:100960008F818F3FF9F6F7FD0DC00F838E818E7F4B
:100970008E83CE010E9423038E818E7F8E83CE01D3
:100980000E942303CE01DF91CF911F910F91FF9021
:10099000EF900895FC018585082E000C990B0895B1
:1009A000FC019585925021E030E0923010F020E07B
:1009B00030E0C9010895CF93DF93EC016115710513
:1009C00021F061307105A9F029C0E881F981019019
:1009D000F081E02D099540E050E0BC01CE01869603
:1009E0000E94E7008BA587FD19C06CA591E06927DF
:1009F00011C0E881F9810190F081E02D099540E076
:100A000050E0BC01CE0181960E94E7008BA587FDD6
:100A100005C06CA5DF91CF910C946401DF91CF915B
:100A20000895CF93DF93EC016130710559F0623086
:100A30007105A9F0672B21F5BC014C96DF91CF9190
:100A40000C94D3028A8D0E943B0121E0892B09F08E
:100A500020E088A191E08927822790E013C08A8D49
:100A60000E943B0141E0892B09F040E098A181E020
:100A7000892731E020E0481330E0832F922F02C015
:100A800080E090E0DF91CF910895FC018585082EEC
:100A9000000C990B0895CF93DF93EC010E9487041B
:100AA000CE01DF91CF91089562307105B9F04CF419
:100AB0006115710581F061307105D1F4BC01829638
:100AC00015C06430710581F064F06530710581F402
:100AD000BC01C2960BC0BC014E9608C0BC018696F4
:100AE00005C0BC018A9602C0BC018E960C94D3024C
:100AF00080E090E00895FC018AE1DF011D928A9573
:100B0000E9F781E086838FEF87838587868789E091
:100B100091E0918380830895CF93DF93009779F0DC
:100B2000FC0101900020E9F73197AF01481B590BF8
:100B3000BC0180EF92E00E94DC01EC0102C0C0E049
:100B4000D0E042E050E064E371E080EF92E00E9488
:100B5000DC018C0F9D1FDF91CF910895CF93DF9320
:100B60006E30710508F0C5C0FB01EC01EC5CFF4F75
:100B70000C943D0A8EA90E94DC0087E391E0DF918E
:100B8000CF910C948C058EA90E94DC0085E491E045
:100B90000E948C058BAD9CAD092E000CAA0BBB0BE3
:100BA0008AA39BA3ACA3BDA361E035C08EA90E941C
:100BB000DC0084E691E00E948C05FE01EF5BFF4FB4
:100BC00080819181092E000CAA0BBB0B8E8F9F8F09
:100BD000A8A3B9A376C08EA90E94DC0081E991E0A8
:100BE00080C08EA90E94DC008FEB91E00E948C05F2
:100BF0008BAD9CAD092E000CAA0BBB0B8AA39BA34B
:100C0000ACA3BDA376C08EA90E94DC008BEE91E060
:100C10000E948C0560E08A8D68C08EA90E94DC006D
:100C200088E092E00E948C058FA998AD092E000CF7
:100C3000AA0BBB0B8EA39FA3A8A7B9A75AC08EA9C6
:100C40000E94DC0080E292E00E948C058DAD9EAD9A
:100C5000092E000CAA0BBB0B8AA79BA7ACA7BDA7AC
:100C600030C08EA90E94DC0088E392E03AC08EA9D1
:100C70000E94DC0085E592E00E948C05FE01FF9653
:100C800080819181092E000CAA0BBB0B8EA79FA718
:100C9000A8ABB9AB2EC08EA90E94DC0089AD9AAD7D
:100CA0001816190684F48BE792E00E948C0589AD32
:100CB0009AAD092E000CAA0BBB0B8AAB9BABACAB5D
:100CC000BDAB61E011C08EE892E00E948C051AAACB
:100CD0001BAA1CAA1DAA0DC08EA90E94DC0083EBD2
:100CE00092E00E948C0560E08C8DDF91CF910C9496
:100CF0006401DF91CF9108950E94430A1F920F92E1
:100D00000FB60F9211242F933F938F939F93AF931E
:100D1000BF938091EC029091ED02A091EE02B09110
:100D2000EF023091EB0223E0230F2D3720F40196E0
:100D3000A11DB11D05C026E8230F0296A11DB11DFE
:100D40002093EB028093EC029093ED02A093EE02CD
:100D5000B093EF028091E7029091E802A091E9023E
:100D6000B091EA020196A11DB11D8093E702909314
:100D7000E802A093E902B093EA02BF91AF919F917C
:100D80008F913F912F910F900FBE0F901F9018954C
:100D90001F920F920FB60F9211242F933F934F93F0
:100DA0005F936F937F938F939F93AF93BF93EF93D3
:100DB000FF938091E1029091E202A091E302B09151
:100DC000E402892B8A2B8B2B59F18091E002E09170
:100DD000DE02F091DF029081892780838091E10219
:100DE0009091E202A091E302B091E4021816190674
:100DF0001A061B060CF03DC08091E1029091E202C0
:100E0000A091E302B091E4020197A109B109809396
:100E1000E1029093E202A093E302B093E40229C0BE
:100E200080910001E4E8F0E0E4919FEF90930001ED
:100E3000E130B9F098F0E230C9F4909170009D7FF4
:100E40009093700091E09093B0009091B100987FE2
:100E500094609093B1001092B30008C010926E009D
:100E600005C090916F009D7F90936F0060E00E949D
:100E70006401FF91EF91BF91AF919F918F917F910D
:100E80006F915F914F913F912F910F900FBE0F90F7
:100E90001F9018951F920F920FB60F9211242F9347
:100EA0003F934F935F936F937F938F939F93AF93F2
:100EB000BF93EF93FF9380EF92E00E943F02FF9178
:100EC000EF91BF91AF919F918F917F916F915F91C2
:100ED0004F913F912F910F900FBE0F901F9018953B
:100EE0001F920F920FB60F9211242F938F939F93FF
:100EF000EF93FF93E0910003F09101038081E09173
:100F00000603F091070382FD12C0908180910903CE
:100F10008F5F8F7320910A03821751F0E0910903CC
:100F2000F0E0E051FD4F958F8093090301C080816F
:100F3000FF91EF919F918F912F910F900FBE0F9086
:100F40001F901895CF93DF93E0EFF2E013821282A7
:100F500088EE93E0A0E0B0E084839583A683B78316
:100F600085E191E09183808385EC90E0958784878B
:100F700084EC90E09787868780EC90E0918B808B63
:100F800081EC90E0938B828B82EC90E0958B848B4C
:100F900086EC90E0978B868B118E128E138E148EBA
:100FA000AAE1E0EDF3E0EF018A2F19928A95E9F7C3
:100FB00031E036832FEF27832587268765E271E0AE
:100FC0007183608344E150E054AF43AF84E690E026
:100FD00090930E0480930D049093100480930F045B
:100FE0009093120480931104EDE8F3E0EF0119925D
:100FF000AA95E9F73683278325872687718360833F
:1010000054AF43AF9093CB038093CA039093CD0327
:101010008093CC039093CF038093CE03DF91CF9145
:101020000895CF93DF93CDB7DEB7C15ED1090FB678
:10103000F894DEBF0FBECDBF789484B5826084BDC6
:1010400084B5816084BD85B5826085BD85B58160CC
:1010500085BD80916E00816080936E00109281004A
:101060008091810082608093810080918100816005
:1010700080938100809180008160809380008091C6
:10108000B10084608093B1008091B0008160809352
:10109000B00080917A00846080937A0080917A0019
:1010A000826080937A0080917A00816080937A00D8
:1010B00080917A00806880937A001092C100E0915C
:1010C0000003F091010382E08083E091FC02F09143
:1010D000FD021082E091FE02F091FF028FEC80830E
:1010E00010920803E0910403F091050386E08083E9
:1010F000E0910203F0910303808180618083E0919D
:101100000203F0910303808188608083E0910203F1
:10111000F0910303808180688083E0910203F09165
:10112000030380818F7D80838BEC92E00E948C058D
:10113000CE018B549F4F0E947B05CE0188579F4F55
:101140000E947B05CE01855A9F4F0E947B05CE01F0
:101150008E960E947B05CE0101960E947B0543E09E
:1011600050E065E870E0CE01855A9F4F0E946A0406
:1011700081E090E0E7969FAF8EAFE797EC961FAEC9
:10118000EC9795E0492E512C612C712CEB964CAECE
:101190005DAE6EAE7FAEEB97AA24AA94CA57DF4F1E
:1011A000A882C658D04060E00E94940123E0B22E8D
:1011B000ED96BFAEED973DE8C32E33E0D32EEF960C
:1011C000DFAECEAEEF9707E010E0C158DF4F1983D6
:1011D0000883CF57D040CF57DF4FB882C158D04097
:1011E000CE57DF4FD982C882C258D040CC57DF4F8C
:1011F00019830883C458D04043E050E065E870E0AC
:10120000CE018E960E946A0483E090E02A969FAFFA
:101210008EAF2A972F961FAE2F972E964CAE5DAEAF
:101220006EAE7FAE2E976A96AFAE6A9760E00E9470
:1012300094016096BFAE60976296DFAECEAE6297C5
:1012400046E0E42EF12C6496FFAEEEAE6497659610
:10125000BFAE65976796DFAECEAE67976996FFAE75
:10126000EEAE69971092C5031092C4031092C703A3
:101270001092C60343E050E065E870E0CE018B5465
:101280009F4F0E946A0482E090E0C153DF4F998330
:101290008883CF5CD040CB52DF4F1882C55DD040F1
:1012A000CF52DF4F488259826A827B82C15DD04033
:1012B000C052DF4FA882C05ED04060E00E9494011F
:1012C000CA52DF4FB882C65DD040C952DF4FD982C3
:1012D000C882C75DD040C752DF4F19821882C95DEE
:1012E000D040C552DF4FB882CB5DD040C452DF4FF3
:1012F000D982C882CC5DD040C252DF4F1982188299
:10130000CE5DD04048E050E068EA70E080ED93E0C8
:101310000E946A0484E090E09093EB038093EA03D8
:1013200085E090E09093ED038093EC0361E084E02E
:101330000E94940161E085E00E94940144244A9453
:10134000542C32014092EE035092EF036092F0036E
:101350007092F1034092F2035092F3036092F4030F
:101360007092F5034092F6035092F7036092F803EF
:101370007092F9034092FA035092FB036092FC03CF
:101380007092FD03409202045092030460920404A0
:101390007092050481E38093060468E5A62E62E05E
:1013A000B62EB0920804A09207047CE2C72EDD247A
:1013B000D394D0920A04C092090448E050E068EA4D
:1013C00070E08DE893E00E946A04F092A803E09236
:1013D000A7031093AA030093A90361E086E00E948B
:1013E000940161E087E00E9494014092AB03509227
:1013F000AC036092AD037092AE034092AF03509283
:10140000B0036092B1037092B2034092B303509262
:10141000B4036092B5037092B6034092B703509242
:10142000B8036092B9037092BA034092BF0350921E
:10143000C0036092C1037092C20382E38093C3032E
:10144000B092C503A092C403D092C703C092C60352
:101450000091E5021091E6020115110559F0F8011D
:101460008681837019F4C8010E942303F801008566
:101470001185F2CF0E94C902EBCFEE0FFF1F05903E
:10148000F491E02D099481E090E0F8940C94480ADE
:04149000F894FFCFFE
:10149400FF0100000000000000D00487041105DBF8
:1014A40004000000006002DC01290207021B02A7FD
:1014B400020000000045054B055405AE052A4E4FB9
:1014C4004E452A000D0A00454E545F4F46462C20D7
:1014D40069646C6500454E545F53544550312C206B
:1014E400707265706172696E672064697265637495
:1014F400696F6E00454E545F53544550322C20732F
:10150400746172742064726976696E6720646F779F
:101514006E2074696C6C2073656C6620686F6C64F3
:10152400004558545F53544550322C2073656C6603
:1015340020686F6C6420737461727465642C20720B
:10154400656C656173696E6720706F7765720045BD
:101554004E545F53544550332C2077616974696E3F
:1015640067206265666F72652072656C656173657C
:1015740020646972656374696F6E004558545F53E3
:10158400544550332C2072656C6561736520646921
:1015940072656374696F6E00454E545F53544550D1
:1015A400342C2064726976696E6720646F776E00EC
:1015B400454E545F53544550352C2073746F70203E
:1015C400636F6D6D616E64004558545F53544550AC
:1015D400352C2073746F7020636F6D6D616E6420A1
:1015E400646F6E6500454E545F53544550362C204D
:1015F40077616974696E67206166746572207374BB
:101604006F7020636F6D6D616E6400454E545F535F
:10161400544550372C207475726E696E6700454EC0
:10162400545F53544550372C206E6F742074757278
:101634006E696E672C2074696D65206973207A6504
:10164400726F00454E545F53544550372C207475C7
:10165400726E696E6720646F6E6500537461727494
:0416640065640000B9
:00000001FF
