:100000000C94AE000C94D6000C94D6000C94D60040
:100010000C94D6000C94D6000C94D6000C94920646
:100020000C94D6000C94D6000C94D6000C94D600F8
:100030000C94D6000C94D6000C94D6000C94D600E8
:100040000C9448060C94D6000C943A070C941407B0
:100050000C94D6000C94D6000C94D6000C94D600C8
:100060000C94D6000C94D600A505AE054306BF053A
:10007000CF05D505E505EF054306FF050F06150677
:100080002506360602FFFFFFFF01FFFFFFFFFF020D
:10009000FF00FF00FFFFFFFF03FFFFFFFF0402FF62
:1000A000FF01FFFFFFFFFF0000FFFFFFFFFFFFFF5C
:1000B000FF01FF01FFFFFF02FFFFFFFFFFFF03FF45
:1000C0000403FFFFFFFFFFFFFF05FF06FF04FFFF25
:1000D000FFFFFFFF07FF08FFFF05FFFFFFFFFF090F
:1000E000FF0AFFFFFF06FFFFFFFF0BFFFFFFFFFF02
:1000F000FF07FFFFFF0CFF0DFFFFFFFFFF00FFFFEC
:1001000000000000240027002A0000000000250055
:1001100028002B0000000000230026002900040412
:10012000040404040404020202020202030303039F
:10013000030301020408102040800102040810207B
:100140000102040810200000000800020100000362
:10015000040700000000000000006C0711241FBE0F
:10016000CFEFD8E0DEBFCDBF23E0AEEAB2E001C002
:100170001D92A53DB207E1F712E0A0E0B1E0E8ED85
:10018000F2E102C005900D92AE3AB107D9F710E046
:10019000CEEAD0E004C02197FE010E945F09CD3A6B
:1001A000D107C9F70E94B7070C946A090C940000A4
:1001B000E091CA02F091CB020190F081E02D682F0E
:1001C0008AEC92E00994CF93DF93DC018C918770E5
:1001D000813019F0833069F01DC01196ED91FC91CA
:1001E00012973097B9F013968D919C9114970995B9
:1001F00011C011968D919C911297009759F0EC01C6
:10020000E881F98113966D917C9114970280F381B6
:10021000E02D099581E0DF91CF910895833081F041
:1002200028F4813099F08230A1F008958730A9F048
:100230008830B9F08430D1F4809180008F7D03C084
:10024000809180008F7780938000089584B58F77A8
:1002500002C084B58F7D84BD08958091B0008F77F2
:1002600003C08091B0008F7D8093B0000895CF933C
:10027000DF93282F30E0F901EA5BFE4F8491F9010A
:10028000EE5CFE4FD491F901E25EFE4FC491CC23A7
:1002900091F081110E940E01EC2FF0E0EE0FFF1F94
:1002A000EC5EFE4FA591B491EC91ED2381E090E0DE
:1002B00021F480E002C080E090E0DF91CF910895CA
:1002C0001F93CF93DF93282F30E0F901EA5BFE4FB5
:1002D0008491F901EE5CFE4FD491F901E25EFE4F8C
:1002E000C491CC23C9F0162F81110E940E01EC2F6E
:1002F000F0E0EE0FFF1FE65FFE4FA591B4918FB7C0
:10030000F894111105C09C91ED2FE095E92302C0EE
:10031000EC91ED2BEC938FBFDF91CF911F9108955E
:10032000CF93DF9390E0FC01EE5CFE4F2491FC0143
:10033000E25EFE4F8491882361F190E0880F991F5F
:10034000FC01E050FF4FC591D491FC01E65FFE4FE8
:10035000A591B491611109C09FB7F8948881209547
:1003600082238883EC912E230BC0623061F49FB707
:10037000F8943881822F809583238883EC912E2BEB
:100380002C939FBF06C08FB7F894E8812E2B28834B
:100390008FBFDF91CF9108952FB7F8946091C60277
:1003A0007091C7028091C8029091C9022FBF089531
:1003B000CF92DF92EF92FF920F931F93CF93DF9331
:1003C0006C017A018B01C0E0D0E0CE15DF0589F029
:1003D000D8016D918D01D601ED91FC910190F081D4
:1003E000E02DC6010995892B11F47E0102C02196EA
:1003F000ECCFC701DF91CF911F910F91FF90EF904C
:10040000DF90CF900895FC01918D828D981761F057
:10041000828DDF01A80FB11D5D968C91928D9F5F3B
:100420009F73928F90E008958FEF9FEF0895FC01E6
:10043000918D828D981731F0828DE80FF11D858D99
:1004400090E008958FEF9FEF0895FC01918D228D2C
:10045000892F90E0805C9F4F821B91098F739927B1
:1004600008958AEC92E00E94250221E0892B09F48C
:1004700020E0822F0895FC01848DDF01A80FB11DBB
:10048000A35ABF4F2C91848D90E001968F739927CA
:10049000848FA689B7892C93A089B1898C918064B7
:1004A0008C93938D848D981306C00288F389E02D78
:1004B00080818F7D80830895EF92FF920F931F9329
:1004C000CF93DF93EC0181E0888F9B8D8C8D981307
:1004D00005C0E889F989808185FD24C0F62E0B8D41
:1004E00010E00F5F1F4F0F731127E02E8C8DE81265
:1004F0000CC00FB607FCFACFE889F989808185FF27
:10050000F5CFCE010E943B02F1CF8B8DFE01E80FAB
:10051000F11DE35AFF4FF0820B8FEA89FB8980813E
:10052000806207C0EE89FF896083E889F98980814C
:100530008064808381E090E0DF91CF911F910F91E3
:10054000FF90EF900895CF93DF93EC01888D88237F
:10055000C9F0EA89FB89808185FD05C0A889B98930
:100560008C9186FD0FC00FB607FCF5CF808185FF0B
:10057000F2CFA889B9898C9185FFEDCFCE010E9479
:100580003B02E7CFDF91CF91089580E090E0892B87
:1005900029F00E94310281110C94000008950F93FC
:1005A0001F93CF93DF93FC0100811181228133815E
:1005B0000F3F1F4F2F4F3F4FE1F08B01EC010E9487
:1005C000CC01F8010281138124813581AB01BC018A
:1005D000401B510B620B730B81E090E00881198185
:1005E0002A813B81401751076207730720F480E09E
:1005F00002C080E090E0DF91CF911F910F910895AC
:100600006F3F8FEF7807B1F061157105B1F0FA0116
:1006100080E090E09F01241B350BA191A111FACF3E
:10062000019686179707B1F72F5F3F4FCA01820FD8
:10063000931F08958DE291E00895CA0108952F92C5
:100640003F924F925F926F927F928F929F92AF9262
:10065000BF92CF92DF92EF92FF920F931F93CF93AF
:10066000DF93EC010E94CC018E81982F937009F0EA
:1006700017C14E895F89688D798D4F5F5F4F6F4FCE
:100680007F4F4E8B5F8B688F798F82608E838C85D6
:100690008F3F09F4B0C0E881F9810680F781E02D31
:1006A0006DEF7FEFCE0109956A887B886114710434
:1006B00009F456C02E883F88488C598C0E94CC0182
:1006C0000A811B812C813D815B016C01A01AB10A5A
:1006D000C20AD30A8F8498886E856F3F31F0062E48
:1006E000000C770B6F5F7F4F02C06FEF7FEFA401AD
:1006F000CE010E9400037C018C858F3F49F06989FF
:1007000070E0680F711D87FD7A956250710902C013
:100710006FEF7FEFA401CE010E9400038C018D8555
:100720008F3F49F0698970E0680F711D87FD7A95E8
:100730006250710902C06FEF7FEFA401CE010E94E9
:1007400000035F924F923F922F929C01A401BE0141
:100750008C899D89F30109950F900F900F900F9050
:100760006D8567FD14C029896203F001112432965A
:100770006A857B85E60FF71F6491E881F981062E73
:10078000000C770B0680F781E02DCE0109958C8552
:100790008D878FEF8C870E94CC016A837B838C834B
:1007A0009D836D8529896203F00111246A857B850B
:1007B000E60FF71F6491E881F981062E000C770B94
:1007C0000680F781E02DCE0109953D852989320308
:1007D000F001112431968A859B85E80FF91FE49179
:1007E0008E81EE3F11F4816001C08E7F8E831E8A60
:1007F0001F8A188E198E6D8529896203F0011124D4
:1008000031966A857B85E60FF71F64916F3F51F043
:10081000E881F981062E000C770B0680F781E02D28
:10082000CE01099503E0602F002E000C770B29897B
:10083000822F90E06817790784F53D853203F00137
:100840001124E60FF71F2A853B85E20FF31F149151
:100850001F3FC9F0019768177907B9F07B01F3E0F2
:10086000EF1AF108E881F9810480F581E02DB701E4
:10087000CE010995892B49F48F81082E000C990B24
:100880008E159F0511F00F5FCECF1C878E818E7F56
:100890008E8303500E878FEF8F838E818D7F8E83A3
:1008A0000E94CC01CE01DF91CF911F910F91FF905B
:1008B000EF90DF90CF90BF90AF909F908F907F9000
:1008C0006F905F904F903F902F900895FC01738739
:1008D00062874C5F418B9681892F8E7F868392FD44
:1008E0000CC02091BF023091C00231872087F09365
:1008F000C002E093BF02846086838FEF85871486F1
:100900008783CF010895EF92FF920F931F93CF93A8
:10091000DF93EC018B0188E0E82EF12C8E818E7F35
:100920008E83CE010E941F033D8529893203F00189
:1009300011243396E00FF11F8A859B85E80FF91F7C
:10094000E4910E2E000CFF0B81E0E81AF10839F05B
:10095000EF3F8FEFF80711F38F818F3FF9F6F7FD27
:100960000DC00F838E818E7F8E83CE010E941F0368
:100970008E818E7F8E83CE010E941F03CE01DF9178
:10098000CF911F910F91FF90EF900895FC01858505
:10099000082E000C990B0895FC019585925021E0DA
:1009A00030E0923010F020E030E0C9010895CF939C
:1009B000DF93EC016115710521F061307105A9F03B
:1009C00029C0E881F9810190F081E02D099540E08E
:1009D00050E0BC01CE0186960E94E3008BA587FD06
:1009E00019C06CA591E0692711C0E881F9810190D7
:1009F000F081E02D099540E050E0BC01CE018196E8
:100A00000E94E3008BA587FD05C06CA5DF91CF9107
:100A10000C946001DF91CF910895CF93DF93EC01A7
:100A20006130710559F062307105A9F0672B21F52D
:100A3000BC014C96DF91CF910C94CF028A8D0E941D
:100A4000370121E0892B09F020E088A191E0892776
:100A5000822790E013C08A8D0E94370141E0892BE4
:100A600009F040E098A181E0892731E020E04813B7
:100A700030E0832F922F02C080E090E0DF91CF9191
:100A80000895FC018585082E000C990B0895CF93DD
:100A9000DF93EC010E948304CE01DF91CF91089592
:100AA00062307105B9F04CF46115710581F0613067
:100AB0007105D1F4BC01829615C06430710581F0D6
:100AC00064F06530710581F4BC01C2960BC0BC01B5
:100AD0004E9608C0BC01869605C0BC018A9602C02D
:100AE000BC018E960C94CF0280E090E00895CF93E5
:100AF000DF93009779F0FC0101900020E9F731972E
:100B0000AF01481B590BBC018AEC92E00E94D8014E
:100B1000EC0102C0C0E0D0E042E050E064E371E0EC
:100B20008AEC92E00E94D8018C0F9D1FDF91CF913B
:100B30000895CF93DF936E30710508F0A4C0FB01D8
:100B4000EC01EC5CFF4F0C945F098EA90E94D80069
:100B500087E391E0DF91CF910C9477058EA90E94F5
:100B6000D80085E491E00E94770584E190E0A0E060
:100B7000B0E08AA39BA3ACA3BDA361E02EC08EA965
:100B80000E94D80084E691E00E94770584E690E018
:100B9000A0E0B0E08E8F9F8FA8A3B9A365C08EA9F7
:100BA0000E94D80081E991E066C08EA90E94D80019
:100BB0008FEB91E00E94770584E190E0A0E0B0E047
:100BC0008AA39BA3ACA3BDA35EC08EA90E94D8003C
:100BD0008BEE91E00E94770560E08A8D50C08EA96F
:100BE0000E94D80088E092E00E94770580E991E0B9
:100BF000A0E0B0E08EA39FA3A8A7B9A744C08EA988
:100C00000E94D80080E292E00E94770584E690E09E
:100C1000A0E0B0E08AA79BA7ACA7BDA725C08EA97E
:100C20000E94D80088E392E026C08EA90E94D800D6
:100C300085E592E00E94770584E690E0A0E0B0E0D0
:100C40008EA79FA7A8ABB9AB1EC08EA90E94D800E3
:100C50008BE792E00E9477058CE291E0A0E0B0E0A3
:100C60008AAB9BABACABBDAB61E008C08EA90E9468
:100C7000D8008EE892E00E94770560E08C8DDF91CD
:100C8000CF910C946001DF91CF9108950E94650986
:100C90001F920F920FB60F9211242F933F938F93B1
:100CA0009F93AF93BF938091C6029091C702A0918A
:100CB000C802B091C9023091C50223E0230F2D373D
:100CC00020F40196A11DB11D05C026E8230F029650
:100CD000A11DB11D2093C5028093C6029093C70247
:100CE000A093C802B093C9028091C1029091C20240
:100CF000A091C302B091C4020196A11DB11D8093C1
:100D0000C1029093C202A093C302B093C402BF91E8
:100D1000AF919F918F913F912F910F900FBE0F90A8
:100D20001F9018951F920F920FB60F9211242F93B8
:100D30003F934F935F936F937F938F939F93AF9363
:100D4000BF93EF93FF938091BB029091BC02A0915F
:100D5000BD02B091BE02892B8A2B8B2B59F1809159
:100D6000BA02E091B802F091B9029081892780839C
:100D70008091BB029091BC02A091BD02B091BE02D5
:100D8000181619061A061B060CF03DC08091BB020E
:100D90009091BC02A091BD02B091BE020197A10941
:100DA000B1098093BB029093BC02A093BD02B093A3
:100DB000BE0229C080910001E4E8F0E0E4919FEFD9
:100DC00090930001E130B9F098F0E230C9F49091CD
:100DD00070009D7F9093700091E09093B00090918F
:100DE000B100987F94609093B1001092B30008C056
:100DF00010926E0005C090916F009D7F90936F00E0
:100E000060E00E946001FF91EF91BF91AF919F91CF
:100E10008F917F916F915F914F913F912F910F90A3
:100E20000FBE0F901F9018951F920F920FB60F9242
:100E300011242F933F934F935F936F937F938F93DF
:100E40009F93AF93BF93EF93FF938AEC92E00E943E
:100E50003B02FF91EF91BF91AF919F918F917F9155
:100E60006F915F914F913F912F910F900FBE0F9017
:100E70001F9018951F920F920FB60F9211242F9367
:100E80008F939F93EF93FF93E091DA02F091DB024F
:100E90008081E091E002F091E10282FD12C0908138
:100EA0008091E3028F5F8F732091E402821751F0EB
:100EB000E091E302F0E0E653FD4F958F8093E3026B
:100EC00001C08081FF91EF919F918F912F910F90A1
:100ED0000FBE0F901F901895EAECF2E01382128279
:100EE00088EE93E0A0E0B0E084839583A683B78387
:100EF00085E191E09183808385EC90E095878487FC
:100F000084EC90E09787868780EC90E0918B808BD3
:100F100081EC90E0938B828B82EC90E0958B848BBC
:100F200086EC90E0978B868B118E128E138E148E2A
:100F30004AE1EEE9F3E0DF01842F1D928A95E9F79B
:100F400091E096838FEF87838587868725E231E05E
:100F500031832083E7E6F3E0DF011D924A95E9F74C
:100F60009683878385878687318320830895CF93EF
:100F7000DF93CDB7DEB7CA55D1090FB6F894DEBFFF
:100F80000FBECDBF789484B5826084BD84B5816086
:100F900084BD85B5826085BD85B5816085BD809144
:100FA0006E00816080936E001092810080918100BC
:100FB00082608093810080918100816080938100B4
:100FC000809180008160809380008091B100846076
:100FD0008093B1008091B00081608093B0008091D7
:100FE0007A00846080937A0080917A008260809396
:100FF0007A0080917A00816080937A0080917A00F3
:10100000806880937A001092C100E091DA02F0913A
:10101000DB0282E08083E091D602F091D702108259
:10102000E091D802F091D9028FEC80831092E20215
:10103000E091DE02F091DF0286E08083E091DC0245
:10104000F091DD02808180618083E091DC02F0918B
:10105000DD02808188608083E091DC02F091DD0216
:10106000808180688083E091DC02F091DD028081E4
:101070008F7D808386EA92E00E9477055AE1CE0157
:101080008E96FC01252F11922A95E9F741E04CAB91
:101090001FEF1DAB1BAF1CAF29E031E03FA72EA710
:1010A000BE016F5F7F4F4B01FB0111925A95E9F72B
:1010B0004F8318871E871F873A83298343E050E0B8
:1010C00065E870E00E94660482E090E02A969FAF97
:1010D0008EAF2A972F961FAE2F9795E0C92ED12C51
:1010E000E12CF12C2E96CCAEDDAEEEAEFFAE2E97FF
:1010F0006A961FAF6A9760E00E94900103E06096D5
:101100000FAF60978EE993E062969FAF8EAF6297C4
:1011100026E0A22EB12C6496BFAEAEAE6497659663
:101120000FAF659767969FAF8EAF67976996BFAE13
:10113000AEAE699743E050E065E870E0C4010E94FC
:10114000660483E090E09C8F8B8F19A2CD8EDE8E9B
:10115000EF8EF8A21CA760E00E9490010AA387E628
:1011600093E09CA38BA3BEA2ADA20FA399A788A7CF
:10117000BBA6AAA647E050E068EA70E08EE993E0DB
:101180000E94660484E090E09093B9038093B803D2
:1011900085E090E09093BB038093BA0361E084E024
:1011A0000E94900161E085E00E949001CC24CA94E5
:1011B000DC2C7601C092BC03D092BD03E092BE034A
:1011C000F092BF03C092C003D092C103E092C20369
:1011D000F092C303C092C403D092C503E092C60349
:1011E000F092C703C092C803D092C903E092CA0329
:1011F000F092CB03C092D003D092D103E092D203FD
:10120000F092D30381E38093D40347E050E068EA8F
:1012100070E087E693E00E946604B0928203A09299
:10122000810387E090E0909384038093830361E0DF
:1012300086E00E94900161E087E00E949001C092E8
:101240008503D0928603E0928703F0928803C092D0
:101250008903D0928A03E0928B03F0928C03C092B0
:101260008D03D0928E03E0928F03F0929003C09290
:101270009103D0929203E0929303F0929403C09270
:101280009903D0929A03E0929B03F0929C0382E32D
:1012900080939D03E090BF02F090C002E114F1043E
:1012A00059F0F7018681837019F4C7010E941F036A
:1012B000F701E084F184F2CF0E94C502EBCFEE0F7C
:1012C000FF1F0590F491E02D099481E090E0F894DF
:0812D0000C946A09F894FFCFA9
:1012D800FF0100000000000000CC0483040D05D7C6
:1012E80004000000005C02D801250203021702A3D3
:1012F800020000000041054705500599052A4E4F98
:101308004E452A000D0A00454E545F4F46462C2094
:1013180069646C6500454E545F53544550312C2028
:10132800707265706172696E672064697265637452
:10133800696F6E00454E545F53544550322C2073EC
:10134800746172742064726976696E6720646F775D
:101358006E2074696C6C2073656C6620686F6C64B1
:10136800004558545F53544550322C2073656C66C1
:1013780020686F6C6420737461727465642C2072C9
:10138800656C656173696E6720706F77657200457B
:101398004E545F53544550332C2077616974696EFD
:1013A80067206265666F72652072656C656173653A
:1013B80020646972656374696F6E004558545F53A1
:1013C800544550332C2072656C65617365206469DF
:1013D80072656374696F6E00454E545F535445508F
:1013E800342C2064726976696E6720646F776E00AA
:1013F800454E545F53544550352C2073746F7020FC
:10140800636F6D6D616E64004558545F5354455069
:10141800352C2073746F7020636F6D6D616E64205E
:10142800646F6E6500454E545F53544550362C200A
:1014380077616974696E6720616674657220737478
:101448006F7020636F6D6D616E6400454E545F531D
:10145800544550372C207475726E696E6700454E7E
:10146800545F53544550372C207475726E696E67FB
:0E14780020646F6E65005374617274656400C9
:00000001FF
