:100000000C946C000C9494000C9494000C94940048
:100010000C9494000C9494000C9494000C94B704E9
:100020000C9494000C9494000C9494000C94940000
:100030000C9494000C9494000C9494000C949400F0
:100040000C946D040C9494000C945F050C94390589
:100050000C9494000C9494000C9494000C949400D0
:100060000C9494000C9494000200FF01FF01FFFF28
:1000700002FF0302FFFFFF04FF05FFFF03FF06FF70
:1000800007FFFFFFFF00000008000201000003045B
:10009000070000000000000000000000002500280C
:1000A000002B0000000000240027002A00040404A4
:1000B0000404040404020202020202030303030311
:1000C00003010204081020408001020408102001EE
:1000D000020408102000910511241FBECFEFD8E0C4
:1000E000DEBFCDBF22E0A6E6B1E001C01D92A9347B
:1000F000B207E1F711E0A0E0B1E0E4E9FDE002C001
:1001000005900D92A636B107D9F710E0CCE6D0E005
:1001100004C02197FE010E94BD06CB36D107C9F766
:100120000E94CF050C94C8060C94000090E0FC01DE
:10013000EF53FF4F2491FC01E355FF4F8491882337
:1001400099F090E0880F991FFC01ED55FF4FA591A4
:10015000B491FC01E756FF4F859194918FB7F894C5
:10016000EC91E22BEC938FBF089590E0FC01EB57EC
:10017000FF4F3491FC01EF53FF4F2491FC01E355F5
:10018000FF4FE491EE2309F43BC0332339F13330C0
:1001900091F038F43130A9F0323001F584B58F7D1B
:1001A00012C0373091F03830A1F03430B9F480917A
:1001B00080008F7D03C0809180008F7780938000C6
:1001C0000DC084B58F7784BD09C08091B0008F7752
:1001D00003C08091B0008F7D8093B000F0E0EE0FFF
:1001E000FF1FE756FF4FA591B4918FB7F894EC919C
:1001F000611103C020952E2301C02E2B2C938FBF9D
:1002000008952FB7F89460917E0170917F018091DD
:100210008001909181012FBF0895CF92DF92EF92DC
:10022000FF920F931F93CF93DF936C017A018B01A1
:10023000C0E0D0E0CE15DF0589F0D8016D918D01C9
:10024000D601ED91FC910190F081E02DC601099558
:10025000892B11F47E0102C02196ECCFC701DF91FA
:10026000CF911F910F91FF90EF90DF90CF90089565
:10027000FC01918D828D981761F0828DDF01A80FAE
:10028000B11D5D968C91928D9F5F9F73928F90E0D0
:1002900008958FEF9FEF0895FC01918D828D98173F
:1002A00031F0828DE80FF11D858D90E008958FEF7C
:1002B0009FEF0895FC01918D228D892F90E0805C45
:1002C0009F4F821B91098F739927089582E891E0CF
:1002D0000E945A0121E0892B09F420E0822F089521
:1002E000FC01848DDF01A80FB11DA35ABF4F2C91D3
:1002F000848D90E001968F739927848FA689B789A2
:100300002C93A089B1898C9180648C93938D848D7A
:10031000981306C00288F389E02D80818F7D808349
:100320000895EF92FF920F931F93CF93DF93EC0109
:1003300081E0888F9B8D8C8D981305C0E889F989A1
:10034000808185FD24C0F62E0B8D10E00F5F1F4FBE
:100350000F731127E02E8C8DE8120CC00FB607FC2E
:10036000FACFE889F989808185FFF5CFCE010E9417
:100370007001F1CF8B8DFE01E80FF11DE35AFF4FA5
:10038000F0820B8FEA89FB898081806207C0EE8949
:10039000FF896083E889F98980818064808381E0B6
:1003A00090E0DF91CF911F910F91FF90EF90089512
:1003B000CF93DF93EC01888D8823C9F0EA89FB890C
:1003C000808185FD05C0A889B9898C9186FD0FC003
:1003D0000FB607FCF5CF808185FFF2CFA889B989D8
:1003E0008C9185FFEDCFCE010E947001E7CFDF91A8
:1003F000CF91089580E090E0892B29F00E9466015A
:1004000081110C94000008950F931F93CF93DF93F5
:10041000FC0100811181228133810F3F1F4F2F4F3B
:100420003F4FE1F08B01EC010E940101F8010281D4
:10043000138124813581AB01BC01401B510B620B40
:10044000730B81E090E0088119812A813B8140177C
:1004500051076207730720F480E002C080E090E05B
:10046000DF91CF911F910F9108956F3F8FEF780724
:10047000B1F061157105B1F0FA0180E090E09F01E3
:10048000241B350BA191A111FACF0196861797076E
:10049000B1F72F5F3F4FCA01820F931F089581E28A
:1004A00091E00895CA0108952F923F924F925F9272
:1004B0006F927F928F929F92AF92BF92CF92DF9274
:1004C000EF92FF920F931F93CF93DF93EC010E9463
:1004D00001018E81982F937009F017C14E895F89B1
:1004E000688D798D4F5F5F4F6F4F7F4F4E8B5F8B66
:1004F000688F798F82608E838C858F3F09F4B0C0BE
:10050000E881F9810680F781E02D6DEF7FEFCE0164
:1005100009956A887B886114710409F456C02E8895
:100520003F88488C598C0E9401010A811B812C81D3
:100530003D815B016C01A01AB10AC20AD30A8F8403
:1005400098886E856F3F31F0062E000C770B6F5F39
:100550007F4F02C06FEF7FEFA401CE010E943502F2
:100560007C018C858F3F49F0698970E0680F711DAF
:1005700087FD7A956250710902C06FEF7FEFA40189
:10058000CE010E9435028C018D858F3F49F069892B
:1005900070E0680F711D87FD7A956250710902C085
:1005A0006FEF7FEFA401CE010E9435025F924F9260
:1005B0003F922F929C01A401BE018C899D89F30179
:1005C00009950F900F900F900F906D8567FD14C0E7
:1005D00029896203F001112432966A857B85E60F32
:1005E000F71F6491E881F981062E000C770B0680D5
:1005F000F781E02DCE0109958C858D878FEF8C8753
:100600000E9401016A837B838C839D836D85298988
:100610006203F00111246A857B85E60FF71F649160
:10062000E881F981062E000C770B0680F781E02D1A
:10063000CE0109953D8529893203F00111243196B7
:100640008A859B85E80FF91FE4918E81EE3F11F4B6
:10065000816001C08E7F8E831E8A1F8A188E198E3C
:100660006D8529896203F001112431966A857B85A5
:10067000E60FF71F64916F3F51F0E881F981062E74
:10068000000C770B0680F781E02DCE01099503E081
:10069000602F002E000C770B2989822F90E06817BD
:1006A000790784F53D853203F0011124E60FF71F29
:1006B0002A853B85E20FF31F14911F3FC9F0019774
:1006C00068177907B9F07B01F3E0EF1AF108E881C8
:1006D000F9810480F581E02DB701CE010995892BC0
:1006E00049F48F81082E000C990B8E159F0511F08F
:1006F0000F5FCECF1C878E818E7F8E8303500E8737
:100700008FEF8F838E818D7F8E830E940101CE01BA
:10071000DF91CF911F910F91FF90EF90DF90CF90DD
:10072000BF90AF909F908F907F906F905F904F9011
:100730003F902F900895EF92FF920F931F93CF93C6
:10074000DF93EC018B0188E0E82EF12C8E818E7F07
:100750008E83CE010E9454023D8529893203F00127
:1007600011243396E00FF11F8A859B85E80FF91F4E
:10077000E4910E2E000CFF0B81E0E81AF10839F02D
:10078000EF3F8FEFF80711F38F818F3FF9F6F7FDF9
:100790000DC00F838E818E7F8E83CE010E94540206
:1007A0008E818E7F8E83CE010E945402CE01DF9116
:1007B000CF911F910F91FF90EF900895FC018585D7
:1007C000082E000C990B0895FC018585082E000C5D
:1007D000990B0895CF93DF93EC010E949B03CE0108
:1007E000DF91CF9108956130710541F0623071055C
:1007F00041F0672B51F4BC014E9605C0BC018296B6
:1008000002C0BC0186960C94040280E090E008953A
:10081000CF93DF93009779F0FC0101900020E9F776
:100820003197AF01481B590BBC0182E891E00E944F
:100830000D01EC0102C0C0E0D0E042E050E068E20F
:1008400071E082E891E00E940D018C0F9D1FDF9105
:10085000CF910895CF93DF93EC016230710519F1C8
:1008600064F461157105C1F06130710589F585E3A6
:1008700091E0DF91CF910C94080463307105C1F0D1
:100880006430710529F583E591E00E94080460E079
:100890008A8D0E94B50016C08BE291E00E94080488
:1008A00061E08A8D11C08FE391E00E9408040AC0C4
:1008B00089E491E00E94080460E08A8D0E94B500FE
:1008C00060E001C061E08C8DDF91CF910C94B500A8
:1008D000DF91CF9108950E94C3061F920F920FB629
:1008E0000F9211242F933F938F939F93AF93BF93B6
:1008F00080917E0190917F01A0918001B091810152
:1009000030917D0123E0230F2D3720F40196A11DA6
:10091000B11D05C026E8230F0296A11DB11D20932D
:100920007D0180937E0190937F01A0938001B0931D
:1009300081018091790190917A01A0917B01B09120
:100940007C010196A11DB11D8093790190937A01DC
:10095000A0937B01B0937C01BF91AF919F918F9148
:100960003F912F910F900FBE0F901F9018951F92DF
:100970000F920FB60F9211242F933F934F935F93D3
:100980006F937F938F939F93AF93BF93EF93FF9357
:100990008091730190917401A0917501B0917601DD
:1009A000892B8A2B8B2B59F180917201E091700178
:1009B000F0917101908189278083809173019091DA
:1009C0007401A0917501B0917601181619061A06E6
:1009D0001B060CF03DC08091730190917401A091B1
:1009E0007501B09176010197A109B1098093730156
:1009F00090937401A0937501B093760129C0809102
:100A00000001E8E6F0E0E4919FEF90930001E1300F
:100A1000B9F098F0E230C9F4909170009D7F909306
:100A2000700091E09093B0009091B100987F946035
:100A30009093B1001092B30008C010926E0005C0F0
:100A400090916F009D7F90936F0060E00E94B500D1
:100A5000FF91EF91BF91AF919F918F917F916F9196
:100A60005F914F913F912F910F900FBE0F901F906C
:100A700018951F920F920FB60F9211242F933F9348
:100A80004F935F936F937F938F939F93AF93BF9396
:100A9000EF93FF9382E891E00E947001FF91EF9144
:100AA000BF91AF919F918F917F916F915F914F9186
:100AB0003F912F910F900FBE0F901F9018951F928E
:100AC0000F920FB60F9211242F938F939F93EF9352
:100AD000FF93E0919201F09193018081E091980160
:100AE000F091990182FD12C0908180919B018F5FEE
:100AF0008F7320919C01821751F0E0919B01F0E0EF
:100B0000EE57FE4F958F80939B0101C08081FF912E
:100B1000EF919F918F912F910F900FBE0F901F908B
:100B20001895E2E8F1E01382128288EE93E0A0E0EB
:100B3000B0E084839583A683B78389E091E09183B5
:100B4000808385EC90E09587848784EC90E097879C
:100B5000868780EC90E0918B808B81EC90E0938B8A
:100B6000828B82EC90E0958B848B86EC90E0978B67
:100B7000868B118E128E138E148EEFE1F2E08AE1D5
:100B8000DF011D928A95E9F781E086838FEF8783E5
:100B90008587868789E191E09183808308957894A1
:100BA00084B5826084BD84B5816084BD85B5826072
:100BB00085BD85B5816085BD80916E008160809323
:100BC0006E0010928100809181008260809381008C
:100BD000809181008160809381008091800081609C
:100BE000809380008091B10084608093B1008091F7
:100BF000B00081608093B00080917A00846080931F
:100C00007A0080917A00826080937A0080917A00E5
:100C1000816080937A0080917A00806880937A0066
:100C20001092C100E0919201F091930182E08083E3
:100C3000E0918E01F0918F011082E0919001F0918E
:100C400091018FEC808310929A01E0919601F091CE
:100C5000970186E08083E0919401F0919501808175
:100C600080618083E0919401F0919501808188609A
:100C70008083E0919401F091950180818068808368
:100C8000E0919401F091950180818F7D80838DE5C5
:100C900091E00E94080489E690E090932A028093F4
:100CA000290287E08093300290912502892F8E7F60
:100CB0008093250292FD11C0209177013091780137
:100CC00030932802209327022FE132E030937801FD
:100CD000209377018460809325028FEF80932C020C
:100CE00010922B028093260284E090E090933A02C7
:100CF0008093390285E090E090933C0280933B0220
:100D000084E00E94960085E00E94960082E390E0D5
:100D1000A0E0B0E080933D0290933E02A0933F029A
:100D2000B093400284E190E0A0E0B0E08093410203
:100D300090934202A0934302B09344028CE390E06C
:100D4000A0E0B0E08093450290934602A093470252
:100D5000B0934802C0917701D0917801209751F06B
:100D60008E81837019F4CE010E9454020884D985C3
:100D7000C02DF4CF0E94FA01EDCFEE0FFF1F0590BA
:100D8000F491E02D099481E090E0F8940C94C80669
:040D9000F894FFCF05
:100D9400FF010000000000000091010D015A01381C
:100DA400014C01D80100000000E403EA03F3032A24
:100DB400042A4E4F4E452A000D0A00454E545F53F7
:100DC40054455031004558545F5354455031004503
:100DD4004E545F5354455032004558545F53544564
:100DE400503200454E545F535445503300537461A0
:060DF4007274656400004A
:00000001FF
